:100000000C9462000C948A000C948A000C948A0070
:100010000C948A000C948A000C948A000C948A0038
:100020000C948A000C948A000C948A000C9472053B
:100030000C948A000C948A000C948A000C948A0018
:100040000C9428050C948A000C94F6040C94D004AB
:100050000C948A000C948A000C948A000C948A00F8
:100060000C948A000C948A000000000024002700F1
:100070002A0000000000250028002B0000000008D6
:10008000000201000003040700000000000000005F
:1000900000000000230026002900040404040404D6
:1000A0000404020202020202030303030303010227
:1000B00004081020408001020408102001020408F6
:1000C0001020730611241FBECFEFD8E0DEBFCDBFD6
:1000D00011E0A0E0B1E0E0E5F8E102C005900D928A
:1000E000A635B107D9F722E0A6E5B1E001C01D921F
:1000F000A534B207E1F710E0C2E6D0E004C02197D2
:10010000FE010E94200CC136D107C9F70E94FB06F0
:100110000C94260C0C940000AF92BF92CF92DF9209
:10012000EF92FF920F931F93CF93DF936C017B01AC
:100130008B01040F151FEB015E01AE18BF08C0173D
:10014000D10759F06991D601ED91FC910190F081B0
:10015000E02DC6010995892B79F7C501DF91CF9173
:100160001F910F91FF90EF90DF90CF90BF90AF90D5
:100170000895FC01538D448D252F30E0842F90E0AD
:10018000821B930B541710F0CF9608950197089592
:10019000FC01918D828D981761F0A28DAE0FBF2F5B
:1001A000B11D5D968C91928D9F5F9F73928F90E0B1
:1001B00008958FEF9FEF0895FC01918D828D981720
:1001C00031F0828DE80FF11D858D90E008958FEF5D
:1001D0009FEF0895FC01918D228D892F90E0805C26
:1001E0009F4F821B91098F739927089588E691E0AC
:1001F0000E94EA0021E0892B09F420E0822F089573
:1002000080E090E0892B29F00E94F60081110C9487
:1002100000000895FC01A48DA80FB92FB11DA35AA9
:10022000BF4F2C91848D90E001968F739927848F16
:10023000A689B7892C93A089B1898C918370806439
:100240008C93938D848D981306C00288F389E02DDA
:1002500080818F7D80830895EF92FF920F931F938B
:10026000CF93DF93EC0181E0888F9B8D8C8D981369
:100270001AC0E889F989808185FF15C09FB7F89475
:10028000EE89FF896083E889F989808183708064C1
:1002900080839FBF81E090E0DF91CF911F910F910C
:1002A000FF90EF900895F62E0B8D10E00F5F1F4F1B
:1002B0000F731127E02E8C8D8E110CC00FB607FC2A
:1002C000FACFE889F989808185FFF5CFCE010E94B8
:1002D0000A01F1CFEB8DEC0FFD2FF11DE35AFF4F1B
:1002E000F0829FB7F8940B8FEA89FB898081806246
:1002F000CFCFCF93DF93EC01888D8823B9F0AA8903
:10030000BB89E889F9898C9185FD03C0808186FDD0
:100310000DC00FB607FCF7CF8C9185FFF2CF80811F
:1003200085FFEDCFCE010E940A01E9CFDF91CF9189
:10033000089590E0FC01E458FF4F2491FC01E25540
:10034000FF4F3491FC01E656FF4FE491EE23C9F0D4
:10035000222339F0233001F1A8F4213019F12230A1
:1003600029F1F0E0EE0FFF1FEE58FF4FA591B49179
:100370008FB7F894EC91611126C030953E233C93E1
:100380008FBF08952730A9F02830C9F0243049F7ED
:10039000809180008F7D03C0809180008F77809353
:1003A0008000DFCF84B58F7784BDDBCF84B58F7DB0
:1003B000FBCF8091B0008F778093B000D2CF809137
:1003C000B0008F7DF9CF3E2BDACFCF93DF9390E053
:1003D000FC01E255FF4F249186569F4FFC0184910A
:1003E0008823D1F090E0880F991FFC01E859FF4F56
:1003F000A591B491FC01EE58FF4FC591D4916111C4
:100400000EC09FB7F8948C91E22FE0958E238C93C9
:100410002881E223E8839FBFDF91CF9108958FB7B2
:10042000F894EC91E22BEC938FBFF6CF3FB7F894A2
:1004300080915C0190915D01A0915E01B0915F019E
:1004400026B5A89B05C02F3F19F00196A11DB11D2F
:100450003FBFBA2FA92F982F8827BC01CD01620F6B
:10046000711D811D911D42E0660F771F881F991F26
:100470004A95D1F70895089590E080E00895CF93CC
:10048000DF93EC0160E08E810E94990161E08E8132
:100490000E94990160E08E810E9499018BE891E0B1
:1004A0000197F1F7DF91CF910895CF92DF92EF920C
:1004B000FF920F931F93CF93DF936C017C0187E032
:1004C000E80EF11CD0E0C0E0062F10E0B8010C2EC1
:1004D00002C0759567950A94E2F76170F701819102
:1004E0007F010E9499012196C430D10579F7C60198
:1004F000DF91CF911F910F91FF90EF90DF90CF9000
:100500000C943F02CF92DF92EF92FF920F931F93D2
:10051000CF93DF93EC01F62E642F8C810E9499011A
:100520008D818F3F19F060E00E9499010F2D10E03E
:100530008F8584FF25C06E0187E0C80ED11CF12C89
:10054000E12CB8010E2C02C0759567950A94E2F76C
:100550006170F60181916F010E949901FFEFEF1A1E
:10056000FF0A88E0E816F10461F7CE01DF91CF9130
:100570001F910F91FF90EF90DF90CF900C943F026E
:10058000B80184E0759567958A95E1F7CE010E94E0
:1005900055026F2DCE01DF91CF911F910F91FF90EA
:1005A000EF90DF90CF900C94550240E0682F8AE2E4
:1005B00092E00C948202CF93DF93823029F49091E1
:1005C000390298609093390280933D0210923E0266
:1005D00080E480933F0280E18093400280E5809335
:1005E000410261E080912E020E94E50180912F027C
:1005F0008F3F19F061E00E94E50161E080913002D7
:100600000E94E501CAE2D2E09E012A523240809166
:10061000390284FD0BC084E090E021962817390749
:1006200044F461E08E810E94E501EECF88E090E025
:10063000F4CF8BE39DE00197F1F760E080912E020B
:100640000E94990160E0809130020E94990180919E
:100650002F028F3F19F060E00E94990180913902CA
:1006600084FD39C063E08AE292E00E945502CBE447
:10067000D6E4CE010197F1F763E08AE292E00E94AE
:1006800055022197F1F763E08AE292E00E94550259
:1006900083E592E00197F1F762E08AE292E00E943E
:1006A00055028091390280620E94D50284E08093D5
:1006B0003A028CE00E94D50281E00E94D5028BE3D1
:1006C0009FE10197F1F782E080933B0286E0DF91A2
:1006D000CF910C94D50280620E94D5028BE496E4FF
:1006E0000197F1F78091390280620E94D50283E57B
:1006F00092E00197F1F78091390280620E94D50261
:10070000D0CF41E00E94820281E090E00895FB0199
:1007100001900020E9F73197AF01461B570BDC0130
:10072000ED91FC910280F381E02D09948F929F92CC
:10073000AF92BF92EF92FF920F931F93CF93DF93ED
:10074000CDB7DEB7A1970FB6F894DEBF0FBECDBF11
:100750007C01FA01CB0119A2223008F42AE08E01B3
:100760000F5D1F4F822E912CB12CA12CBF01A50132
:1007700094010E94A009F901CA016A300CF5605D7C
:10078000D8016E938D01232B242B252B79F790E034
:1007900080E0109721F0BD01C7010E948703A19658
:1007A0000FB6F894DEBF0FBECDBFDF91CF911F9182
:1007B0000F91FF90EF90BF90AF909F908F90089512
:1007C000695CDECF2F923F924F925F926F927F9241
:1007D0008F929F92AF92BF92CF92DF92EF92FF9251
:1007E0001F93CF93DF93EC016A017B01722EAB0163
:1007F0009601CB01B6010E940F0C6EE171E08111F0
:1008000026C046015701E894B7F82FEF3FEF4FE7B6
:100810005FE7C501B4010E940F0C81110CC02FEFDE
:100820003FEF4FE75FE7C501B4010E943E0A62E275
:1008300071E0181664F02FEF3FEF4FE75FE4C70158
:10084000B6010E949D0B1816B4F466E271E0CE0169
:10085000DF91CF911F91FF90EF90DF90CF90BF90ED
:10086000AF909F908F907F906F905F904F903F9050
:100870002F900C9487032FEF3FEF4FE75FECC701FA
:10088000B6010E943E0A87FDE0CF20E030E0A901DA
:10089000C701B6010E943E0A312C212C87FF0DC0F2
:1008A000E881F9810190F081E02D6DE2CE0109959A
:1008B0001C01F7FAF094F7F8F09410E060E070E0B3
:1008C00080E09FE3711641F020E030E040E251E427
:1008D0000E94430A1F5FF6CFA70196010E94D2092A
:1008E0002B013C010E94BC0A4B015C012AE0BC01C7
:1008F000A401CE010E9496037C01E20CF31C11239B
:10090000E1F1C501B4010E94EB0A9B01AC01C301F6
:10091000B2010E94D1094B015C01E881F98101908B
:10092000F081E02D6EE2CE010995E80EF91E11501E
:1009300020F120E030E040E251E4C501B4010E9422
:10094000A20B2B013C010E94BC0A4B01B12CA12C33
:100950002AE0B501A401CE010E949603E80EF91E1B
:10096000C501B4010E94EB0A9B01AC01C301B201B5
:100970000E94D1094B015C01DACFC701DF91CF9111
:100980001F91FF90EF90DF90CF90BF90AF909F901E
:100990008F907F906F905F904F903F902F90089531
:1009A0001F920F920FB60F9211242F933F934F93E4
:1009B0005F936F937F938F939F93AF93BF93EF93C7
:1009C000FF9388E691E00E940A01FF91EF91BF91A9
:1009D000AF919F918F917F916F915F914F913F91D7
:1009E0002F910F900FBE0F901F9018951F920F928E
:1009F0000FB60F9211242F938F939F93EF93FF9332
:100A0000E0917801F09179018081E0917E01F0918F
:100A10007F0182FD1BC09081809181018F5F8F7368
:100A200020918201821741F0E0918101F0E0E859C4
:100A3000FE4F958F80938101FF91EF919F918F9150
:100A40002F910F900FBE0F901F9018958081F4CFBB
:100A50001F920F920FB60F9211242F933F938F93F3
:100A60009F93AF93BF938091580190915901A091AA
:100A70005A01B0915B013091570123E0230F2D37CC
:100A800058F50196A11DB11D20935701809358017F
:100A900090935901A0935A01B0935B0180915C013E
:100AA00090915D01A0915E01B0915F010196A11D41
:100AB000B11D80935C0190935D01A0935E01B093A2
:100AC0005F01BF91AF919F918F913F912F910F90B7
:100AD0000FBE0F901F90189526E8230F0296A11DB8
:100AE000B11DD2CF1F920F920FB60F9211242F93E8
:100AF0003F934F935F936F937F938F939F93AF93A6
:100B0000BF93CF93DF93EF93FF9380915601C091F2
:100B10002902D0E087FF24C0109285001092840043
:100B2000809156018F5F8093560180915601082E67
:100B3000000C990B8C179D0724F4809156018C3082
:100B4000C4F18091840090918500049680349C4982
:100B500008F47AC08091840090918500049676C054
:100B600080915601082E000C990B8C179D07C4F636
:100B7000E09156018E2FEE0F990BFC01EE0FFF1F37
:100B8000E80FF91FEB5FFD4F808186FFC9CFE09131
:100B900056018E2FEE0F990BFC01EE0FFF1FE80F91
:100BA000F91FEB5FFD4F808160E08F730E94990118
:100BB000B7CF2091840030918500E09156018E2FAF
:100BC000EE0F990BFC01EE0FFF1FE80FF91FEB5F13
:100BD000FD4F81819281820F931F909389008093B2
:100BE0008800E09156018E2FEE0F990BFC01EE0F5D
:100BF000FF1FE80FF91FEB5FFD4F808186FF11C0DB
:100C0000E09156018E2FEE0F990BFC01EE0FFF1FA6
:100C1000E80FF91FEB5FFD4F808161E08F730E9449
:100C20009901FF91EF91DF91CF91BF91AF919F918A
:100C30008F917F916F915F914F913F912F910F9085
:100C40000FBE0F901F90189580E49CE99093890047
:100C5000809388008FEF80935601E3CFCF92DF928D
:100C6000EF92FF920F931F93E82FF92F05C00150C9
:100C700011092109310961F1908196239417B9F383
:100C800005C0015011092109310911F19081962304
:100C90009413F7CFC12CD12CE12CF12C0AC08FEF8B
:100CA000C81AD80AE80AF80A0C151D052E053F05D2
:100CB00079F080818623841791F36C2D7D2D8E2D04
:100CC0009F2D1F910F91FF90EF90DF90CF9008958F
:100CD00060E070E080E090E01F910F91FF90EF9056
:100CE000DF90CF90089510926B0110926A0188EE08
:100CF00093E0A0E0B0E080936C0190936D01A0932D
:100D00006E01B0936F0184E091E09093690180934C
:100D1000680185EC90E0909375018093740184ECF8
:100D200090E0909377018093760180EC90E090932F
:100D300079018093780181EC90E090937B0180931E
:100D40007A0182EC90E090937D0180937C0186ECA7
:100D500090E090937F0180937E0110928101109228
:100D600082011092830110928401809129028C30BB
:100D7000F0F591E0980F909329028093420290E061
:100D8000FC01EE0FFF1FE80FF91FEB5FFD4F88EB33
:100D90009BE09283818310922D0210922C0286E1B7
:100DA00091E090932B0280932A028DE080932E0293
:100DB0008FEF80932F028CE0809330028BE0809342
:100DC00031028AE08093320289E08093330288E026
:100DD000809334021092350210923602109237023C
:100DE000109238021092390281E00C94DB028FEFEE
:100DF00080934202D0CF789484B5826084BD84B55C
:100E0000816084BD85B5826085BD85B5816085BD05
:100E100080916E00816080936E00109281008091BD
:100E20008100826080938100809181008160809345
:100E30008100809180008160809380008091B1006A
:100E400084608093B1008091B00081608093B00095
:100E500080917A00846080937A0080917A00826029
:100E600080937A0080917A00816080937A008091EB
:100E70007A00806880937A001092C10080914202CB
:100E80008C3008F051C061E086E00E94E50180915D
:100E90004202282F30E0F901EE0FFF1FE20FF31F8F
:100EA000EB5FFD4F9081907C96609083109243029F
:100EB000109244022CE0622F0E94140C829FB00119
:100EC000112430E020E0AB01420F531FFA01EE0F76
:100ED000FF1FE40FF51FEB5FFD4F908196FD16C0DD
:100EE0002F5F3F4F2C30310571F781110FC01092E9
:100EF000800082E08093810010928500109284002F
:100F0000B19A80916F00826080936F00E0914202FD
:100F10008E2F90E0FC01EE0FFF1FE80FF91FEB5F33
:100F2000FD4F80818064808361E083E00E94E50161
:100F300060E082E00E94E501E0917801F0917901A2
:100F400082E08083E0917401F09175011082E0915C
:100F50007601F09177018FEC808310928001E0910F
:100F60007C01F0917D0186E08083E0917A01F0912F
:100F70007B01808180618083E0917A01F0917B0127
:100F8000808188608083E0917A01F0917B0180818B
:100F900080688083E0917A01F0917B0180818F7D70
:100FA000808382E00E94DB0208E8202E312CC8E515
:100FB000D2E084EB482E512C612C712C60E083E050
:100FC0000E94990183E090E00197F1F761E083E0EE
:100FD0000E94990183E290E00197F1F760E083E0DD
:100FE0000E949901E0EBF0E06491ECE9F0E084917B
:100FF000E82FF0E0EE0FFF1FE057FF4F859194912F
:1010000000E412E42FE030E0462F0E942E06611526
:1010100071058105910529F06F5F7F4F8F4F9F4FBD
:101020009F700E94EB0A6093640170936501809346
:1010300066019093670128E23EE74CE05DE30E9481
:10104000A20B20E030E040E05FE30E94A20B60933F
:101050006001709361018093620190936301E1E00C
:1010600080913D028111E0E0E195F0E0E65DFD4F09
:10107000848980680E94D5026AE271E088E691E086
:101080000E9487034091600150916101609162016B
:101090007091630122E088E691E00E94E2036BE335
:1010A00071E088E691E00E9487036EE371E08AE2D6
:1010B00092E00E948703409160015091610160912C
:1010C00062017091630122E08AE292E00E94E203F1
:1010D000E0913D02E23008F0FFC0E150F0E0E65D53
:1010E000FD4F848980680E94D50269E471E08AE23C
:1010F00092E00E948703C0906001D0906101E0906F
:101100006201F090630120E030E0A901C701B6015F
:101110000E943E0A70E060E087FD10C020E030E0F1
:1011200044E353E4C701B6010E949D0B64EB70E0F9
:10113000181624F0C701B6010E94B50A6B01770F9B
:10114000EE08FF082AE0B701A601F7FE0EC041E055
:101150006DE28AE292E00E94820244275527BA019A
:101160004C195D096E097F092AE08AE292E00E942B
:10117000960360916001709161018091620190918C
:1011800063010E94B50A9B016032F2E07F07BCF563
:10119000209143026101C21AD10827FDD394CC0CDF
:1011A000DD1CCC0CDD1C0D2C000CEE08FF08209182
:1011B0004402AE01421B510927FD53959A01220FAB
:1011C000331F220F331F032E000C440B550B2C1919
:1011D0003D094E095F09DB01653B710514F0A4EB85
:1011E000B0E0B7FF02C0B0E0A0E00E949809A30100
:1011F00092010E946E092C0D3D1D4E1D5F1D4091F8
:1012000042024C3080F580914302B101681B7109A4
:1012100087FD7395CB01880F991F880F991F281799
:10122000390784F080914402FE01E81BF10987FD33
:10123000F395CF01880F991F880F991F2817390739
:101240000CF4C9010297880F991F6FB7F89450E00A
:101250009A01220F331F240F351FF901EB5FFD4F59
:10126000928381836FBF0E9416024B015C0184EF61
:10127000C82EDD24D394E12CF12C0E9416026819AB
:1012800079098A099B09683E734081059105A8F395
:10129000F1E0CF1AD108E108F10828EE820E23E030
:1012A000921EA11CB11CC114D104E104F10429F760
:1012B00081E00E94D5028BE39FE10197F1F760E0A6
:1012C00070E0672B09F47ACE0E94F600882309F4B7
:1012D00075CE0E94000072CEE1E000CF052E97FB94
:1012E0001EF400940E94850957FD07D00E94A009B2
:1012F00007FC03D04EF40C94850950954095309529
:1013000021953F4F4F4F5F4F089590958095709571
:1013100061957F4F8F4F9F4F08950E94C209A59FEF
:10132000900DB49F900DA49F800D911D11240895E0
:10133000B7FF0C948D090E948D09821B930B0895B1
:10134000A1E21A2EAA1BBB1BFD010DC0AA1FBB1FC9
:10135000EE1FFF1FA217B307E407F50720F0A21B3B
:10136000B30BE40BF50B661F771F881F991F1A94A8
:1013700069F760957095809590959B01AC01BD01D2
:10138000CF010895A29FB001B39FC001A39F700D2C
:10139000811D1124911DB29F700D811D1124911D7D
:1013A00008955058BB27AA270E94E9090C94630BA3
:1013B0000E94550B38F00E945C0B20F039F49F3FDF
:1013C00019F426F40C94520B0EF4E095E7FB0C9400
:1013D0004C0BE92F0E94740B58F3BA17620773077E
:1013E0008407950720F079F4A6F50C94960B0EF47B
:1013F000E0950B2EBA2FA02D0B01B90190010C0125
:10140000CA01A0011124FF27591B99F0593F50F43C
:10141000503E68F11A16F040A22F232F342F442794
:10142000585FF3CF469537952795A795F04053958C
:10143000C9F77EF41F16BA0B620B730B840BBAF05C
:101440009150A1F0FF0FBB1F661F771F881FC2F7C7
:101450000EC0BA0F621F731F841F48F487957795DB
:101460006795B795F7959E3F08F0B0CF9395880F95
:1014700008F09927EE0F9795879508950E94280BFD
:1014800008F481E008950E94570A0C94630B0E94AF
:101490005C0B58F00E94550B40F029F45F3F29F097
:1014A0000C944C0B51110C94970B0C94520B0E9402
:1014B000740B68F39923B1F3552391F3951B550BE6
:1014C000BB27AA2762177307840738F09F5F5F4F17
:1014D000220F331F441FAA1FA9F335D00E2E3AF056
:1014E000E0E832D091505040E695001CCAF72BD06E
:1014F000FE2F29D0660F771F881FBB1F26173707BF
:101500004807AB07B0E809F0BB0B802DBF01FF27F0
:1015100093585F4F3AF09E3F510578F00C944C0B76
:101520000C94970B5F3FE4F3983ED4F38695779540
:101530006795B795F7959F5FC9F7880F911D9695A9
:10154000879597F90895E1E0660F771F881FBB1F05
:10155000621773078407BA0720F0621B730B840BB2
:10156000BA0BEE1F88F7E09508950E94BC0A6894B4
:10157000B1110C94970B08950E947C0B88F09F5733
:1015800098F0B92F9927B751B0F0E1F0660F771FA7
:10159000881F991F1AF0BA95C9F714C0B13091F09D
:1015A0000E94960BB1E008950C94960B672F782F4C
:1015B0008827B85F39F0B93FCCF386957795679562
:1015C000B395D9F73EF490958095709561957F4FCE
:1015D0008F4F9F4F0895E89409C097FB3EF4909574
:1015E0008095709561957F4F8F4F9F4F9923A9F0FC
:1015F000F92F96E9BB279395F6958795779567958B
:10160000B795F111F8CFFAF4BB0F11F460FF1BC0CE
:101610006F5F7F4F8F4F9F4F16C0882311F096E961
:1016200011C0772321F09EE8872F762F05C066230F
:1016300071F096E8862F70E060E02AF09A95660FC8
:10164000771F881FDAF7880F9695879597F9089581
:10165000990F0008550FAA0BE0E8FEEF16161706C3
:10166000E807F907C0F012161306E407F50798F02B
:10167000621B730B840B950B39F40A2661F0232B44
:10168000242B252B21F408950A2609F4A140A695C0
:101690008FEF811D811D089597F99F6780E870E0A5
:1016A00060E008959FEF80EC089500240A941616D8
:1016B000170618060906089500240A941216130640
:1016C000140605060895092E0394000C11F48823CE
:1016D00052F0BB0F40F4BF2B11F460FF04C06F5FEA
:1016E0007F4F8F4F9F4F089557FD9058440F551FC0
:1016F00059F05F3F71F04795880F97FB991F61F094
:101700009F3F79F087950895121613061406551F0A
:10171000F2CF4695F1DF08C0161617061806991F76
:10172000F1CF86957105610508940895E894BB276B
:1017300066277727CB0197F908950E94280B08F4B4
:101740008FEF08950E94B50B0C94630B0E94550B0C
:1017500038F00E945C0B20F0952311F00C944C0B98
:101760000C94520B11240C94970B0E94740B70F381
:10177000959FC1F3950F50E0551F629FF001729F36
:10178000BB27F00DB11D639FAA27F00DB11DAA1F45
:10179000649F6627B00DA11D661F829F2227B00D92
:1017A000A11D621F739FB00DA11D621F839FA00D1D
:1017B000611D221F749F3327A00D611D231F849F6D
:1017C000600D211D822F762F6A2F11249F575040C4
:1017D0009AF0F1F088234AF0EE0FFF1FBB1F661F3F
:1017E000771F881F91505040A9F79E3F510580F008
:1017F0000C944C0B0C94970B5F3FE4F3983ED4F39E
:10180000869577956795B795F795E7959F5FC1F7AB
:10181000FE2B880F911D9695879597F908950E9444
:10182000280B880B990B0895991B79E004C0991F28
:10183000961708F0961B881F7A95C9F7809508952A
:10184000EE0FFF1F0590F491E02D0994F894FFCF5F
:10185000000000002C018C00B9007901EA00C800EA
:10186000DC000000000081038C003C023B026E6142
:101870006E00696E66006F76660044697374616E0F
:10188000636520696E20436D3A20000D0A004469AB
:101890007374616E63653A2000536572766F416EB2
:0618A000676C653A2000B0
:00000001FF
